{
	"Contracts/Test.sol": {
		"Test": {
			"abi": [
				{
					"inputs": [],
					"name": "getArray",
					"outputs": [
						{
							"internalType": "string[]",
							"name": "",
							"type": "string[]"
						}
					],
					"stateMutability": "view",
					"type": "function"
				},
				{
					"inputs": [],
					"name": "getArrayLength",
					"outputs": [
						{
							"internalType": "uint256",
							"name": "",
							"type": "uint256"
						}
					],
					"stateMutability": "view",
					"type": "function"
				},
				{
					"inputs": [
						{
							"internalType": "uint256",
							"name": "",
							"type": "uint256"
						}
					],
					"name": "myArray",
					"outputs": [
						{
							"internalType": "string",
							"name": "",
							"type": "string"
						}
					],
					"stateMutability": "view",
					"type": "function"
				},
				{
					"inputs": [],
					"name": "pushStringToArray",
					"outputs": [],
					"stateMutability": "nonpayable",
					"type": "function"
				}
			],
			"devdoc": {
				"kind": "dev",
				"methods": {},
				"version": 1
			},
			"evm": {
				"assembly": "    /* \"Contracts/Test.sol\":61:423  contract Test {... */\n  mstore(0x40, 0x80)\n  callvalue\n  dup1\n  iszero\n  tag_1\n  jumpi\n  0x00\n  dup1\n  revert\ntag_1:\n  pop\n  dataSize(sub_0)\n  dup1\n  dataOffset(sub_0)\n  0x00\n  codecopy\n  0x00\n  return\nstop\n\nsub_0: assembly {\n        /* \"Contracts/Test.sol\":61:423  contract Test {... */\n      mstore(0x40, 0x80)\n      callvalue\n      dup1\n      iszero\n      tag_1\n      jumpi\n      0x00\n      dup1\n      revert\n    tag_1:\n      pop\n      jumpi(tag_2, lt(calldatasize, 0x04))\n      shr(0xe0, calldataload(0x00))\n      dup1\n      0x0849cc99\n      eq\n      tag_3\n      jumpi\n      dup1\n      0xcc3e57d9\n      eq\n      tag_4\n      jumpi\n      dup1\n      0xd504ea1d\n      eq\n      tag_5\n      jumpi\n      dup1\n      0xd9bc383f\n      eq\n      tag_6\n      jumpi\n    tag_2:\n      0x00\n      dup1\n      revert\n        /* \"Contracts/Test.sol\":325:418  function getArrayLength() public view returns (uint) {... */\n    tag_3:\n      tag_7\n      tag_8\n      jump\t// in\n    tag_7:\n      mload(0x40)\n      tag_9\n      swap2\n      swap1\n      tag_10\n      jump\t// in\n    tag_9:\n      mload(0x40)\n      dup1\n      swap2\n      sub\n      swap1\n      return\n        /* \"Contracts/Test.sol\":82:105  string[] public myArray */\n    tag_4:\n      tag_11\n      0x04\n      dup1\n      calldatasize\n      sub\n      dup2\n      add\n      swap1\n      tag_12\n      swap2\n      swap1\n      tag_13\n      jump\t// in\n    tag_12:\n      tag_14\n      jump\t// in\n    tag_11:\n      mload(0x40)\n      tag_15\n      swap2\n      swap1\n      tag_16\n      jump\t// in\n    tag_15:\n      mload(0x40)\n      dup1\n      swap2\n      sub\n      swap1\n      return\n        /* \"Contracts/Test.sol\":226:317  function getArray() public view returns (string[] memory) {... */\n    tag_5:\n      tag_17\n      tag_18\n      jump\t// in\n    tag_17:\n      mload(0x40)\n      tag_19\n      swap2\n      swap1\n      tag_20\n      jump\t// in\n    tag_19:\n      mload(0x40)\n      dup1\n      swap2\n      sub\n      swap1\n      return\n        /* \"Contracts/Test.sol\":115:218  function pushStringToArray() public {... */\n    tag_6:\n      tag_21\n      tag_22\n      jump\t// in\n    tag_21:\n      stop\n        /* \"Contracts/Test.sol\":325:418  function getArrayLength() public view returns (uint) {... */\n    tag_8:\n        /* \"Contracts/Test.sol\":372:376  uint */\n      0x00\n        /* \"Contracts/Test.sol\":396:403  myArray */\n      dup1\n        /* \"Contracts/Test.sol\":396:410  myArray.length */\n      dup1\n      sload\n      swap1\n      pop\n        /* \"Contracts/Test.sol\":389:410  return myArray.length */\n      swap1\n      pop\n        /* \"Contracts/Test.sol\":325:418  function getArrayLength() public view returns (uint) {... */\n      swap1\n      jump\t// out\n        /* \"Contracts/Test.sol\":82:105  string[] public myArray */\n    tag_14:\n      0x00\n      dup2\n      dup2\n      sload\n      dup2\n      lt\n      tag_24\n      jumpi\n      0x00\n      dup1\n      revert\n    tag_24:\n      swap1\n      0x00\n      mstore\n      keccak256(0x00, 0x20)\n      add\n      0x00\n      swap2\n      pop\n      swap1\n      pop\n      dup1\n      sload\n      tag_26\n      swap1\n      tag_27\n      jump\t// in\n    tag_26:\n      dup1\n      0x1f\n      add\n      0x20\n      dup1\n      swap2\n      div\n      mul\n      0x20\n      add\n      mload(0x40)\n      swap1\n      dup2\n      add\n      0x40\n      mstore\n      dup1\n      swap3\n      swap2\n      swap1\n      dup2\n      dup2\n      mstore\n      0x20\n      add\n      dup3\n      dup1\n      sload\n      tag_28\n      swap1\n      tag_27\n      jump\t// in\n    tag_28:\n      dup1\n      iszero\n      tag_29\n      jumpi\n      dup1\n      0x1f\n      lt\n      tag_30\n      jumpi\n      0x0100\n      dup1\n      dup4\n      sload\n      div\n      mul\n      dup4\n      mstore\n      swap2\n      0x20\n      add\n      swap2\n      jump(tag_29)\n    tag_30:\n      dup3\n      add\n      swap2\n      swap1\n      0x00\n      mstore\n      keccak256(0x00, 0x20)\n      swap1\n    tag_31:\n      dup2\n      sload\n      dup2\n      mstore\n      swap1\n      0x01\n      add\n      swap1\n      0x20\n      add\n      dup1\n      dup4\n      gt\n      tag_31\n      jumpi\n      dup3\n      swap1\n      sub\n      0x1f\n      and\n      dup3\n      add\n      swap2\n    tag_29:\n      pop\n      pop\n      pop\n      pop\n      pop\n      dup2\n      jump\t// out\n        /* \"Contracts/Test.sol\":226:317  function getArray() public view returns (string[] memory) {... */\n    tag_18:\n        /* \"Contracts/Test.sol\":267:282  string[] memory */\n      0x60\n        /* \"Contracts/Test.sol\":302:309  myArray */\n      0x00\n        /* \"Contracts/Test.sol\":295:309  return myArray */\n      dup1\n      sload\n      dup1\n      0x20\n      mul\n      0x20\n      add\n      mload(0x40)\n      swap1\n      dup2\n      add\n      0x40\n      mstore\n      dup1\n      swap3\n      swap2\n      swap1\n      dup2\n      dup2\n      mstore\n      0x20\n      add\n      0x00\n      swap1\n    tag_33:\n      dup3\n      dup3\n      lt\n      iszero\n      tag_34\n      jumpi\n      dup4\n      dup3\n      swap1\n      0x00\n      mstore\n      keccak256(0x00, 0x20)\n      add\n      dup1\n      sload\n      tag_36\n      swap1\n      tag_27\n      jump\t// in\n    tag_36:\n      dup1\n      0x1f\n      add\n      0x20\n      dup1\n      swap2\n      div\n      mul\n      0x20\n      add\n      mload(0x40)\n      swap1\n      dup2\n      add\n      0x40\n      mstore\n      dup1\n      swap3\n      swap2\n      swap1\n      dup2\n      dup2\n      mstore\n      0x20\n      add\n      dup3\n      dup1\n      sload\n      tag_37\n      swap1\n      tag_27\n      jump\t// in\n    tag_37:\n      dup1\n      iszero\n      tag_38\n      jumpi\n      dup1\n      0x1f\n      lt\n      tag_39\n      jumpi\n      0x0100\n      dup1\n      dup4\n      sload\n      div\n      mul\n      dup4\n      mstore\n      swap2\n      0x20\n      add\n      swap2\n      jump(tag_38)\n    tag_39:\n      dup3\n      add\n      swap2\n      swap1\n      0x00\n      mstore\n      keccak256(0x00, 0x20)\n      swap1\n    tag_40:\n      dup2\n      sload\n      dup2\n      mstore\n      swap1\n      0x01\n      add\n      swap1\n      0x20\n      add\n      dup1\n      dup4\n      gt\n      tag_40\n      jumpi\n      dup3\n      swap1\n      sub\n      0x1f\n      and\n      dup3\n      add\n      swap2\n    tag_38:\n      pop\n      pop\n      pop\n      pop\n      pop\n      dup2\n      mstore\n      0x20\n      add\n      swap1\n      0x01\n      add\n      swap1\n      jump(tag_33)\n    tag_34:\n      pop\n      pop\n      pop\n      pop\n      swap1\n      pop\n        /* \"Contracts/Test.sol\":226:317  function getArray() public view returns (string[] memory) {... */\n      swap1\n      jump\t// out\n        /* \"Contracts/Test.sol\":115:218  function pushStringToArray() public {... */\n    tag_22:\n        /* \"Contracts/Test.sol\":162:169  myArray */\n      0x00\n        /* \"Contracts/Test.sol\":162:180  myArray.push('Hi') */\n      dup1\n      0x01\n      dup2\n      sload\n      add\n      dup1\n      dup3\n      sstore\n      dup1\n      swap2\n      pop\n      pop\n      0x01\n      swap1\n      sub\n      swap1\n      0x00\n      mstore\n      keccak256(0x00, 0x20)\n      add\n      0x00\n      mload(0x40)\n      dup1\n      0x40\n      add\n      0x40\n      mstore\n      dup1\n      0x02\n      dup2\n      mstore\n      0x20\n      add\n      0x4869000000000000000000000000000000000000000000000000000000000000\n      dup2\n      mstore\n      pop\n      swap1\n      swap2\n      swap1\n      swap2\n      pop\n      swap1\n      dup2\n      tag_43\n      swap2\n      swap1\n      tag_44\n      jump\t// in\n    tag_43:\n      pop\n        /* \"Contracts/Test.sol\":191:198  myArray */\n      0x00\n        /* \"Contracts/Test.sol\":191:210  myArray.push('Bye') */\n      dup1\n      0x01\n      dup2\n      sload\n      add\n      dup1\n      dup3\n      sstore\n      dup1\n      swap2\n      pop\n      pop\n      0x01\n      swap1\n      sub\n      swap1\n      0x00\n      mstore\n      keccak256(0x00, 0x20)\n      add\n      0x00\n      mload(0x40)\n      dup1\n      0x40\n      add\n      0x40\n      mstore\n      dup1\n      0x03\n      dup2\n      mstore\n      0x20\n      add\n      0x4279650000000000000000000000000000000000000000000000000000000000\n      dup2\n      mstore\n      pop\n      swap1\n      swap2\n      swap1\n      swap2\n      pop\n      swap1\n      dup2\n      tag_46\n      swap2\n      swap1\n      tag_44\n      jump\t// in\n    tag_46:\n      pop\n        /* \"Contracts/Test.sol\":115:218  function pushStringToArray() public {... */\n      jump\t// out\n        /* \"#utility.yul\":7:84   */\n    tag_47:\n        /* \"#utility.yul\":44:51   */\n      0x00\n        /* \"#utility.yul\":73:78   */\n      dup2\n        /* \"#utility.yul\":62:78   */\n      swap1\n      pop\n        /* \"#utility.yul\":7:84   */\n      swap2\n      swap1\n      pop\n      jump\t// out\n        /* \"#utility.yul\":90:208   */\n    tag_48:\n        /* \"#utility.yul\":177:201   */\n      tag_87\n        /* \"#utility.yul\":195:200   */\n      dup2\n        /* \"#utility.yul\":177:201   */\n      tag_47\n      jump\t// in\n    tag_87:\n        /* \"#utility.yul\":172:175   */\n      dup3\n        /* \"#utility.yul\":165:202   */\n      mstore\n        /* \"#utility.yul\":90:208   */\n      pop\n      pop\n      jump\t// out\n        /* \"#utility.yul\":214:436   */\n    tag_10:\n        /* \"#utility.yul\":307:311   */\n      0x00\n        /* \"#utility.yul\":345:347   */\n      0x20\n        /* \"#utility.yul\":334:343   */\n      dup3\n        /* \"#utility.yul\":330:348   */\n      add\n        /* \"#utility.yul\":322:348   */\n      swap1\n      pop\n        /* \"#utility.yul\":358:429   */\n      tag_89\n        /* \"#utility.yul\":426:427   */\n      0x00\n        /* \"#utility.yul\":415:424   */\n      dup4\n        /* \"#utility.yul\":411:428   */\n      add\n        /* \"#utility.yul\":402:408   */\n      dup5\n        /* \"#utility.yul\":358:429   */\n      tag_48\n      jump\t// in\n    tag_89:\n        /* \"#utility.yul\":214:436   */\n      swap3\n      swap2\n      pop\n      pop\n      jump\t// out\n        /* \"#utility.yul\":523:640   */\n    tag_50:\n        /* \"#utility.yul\":632:633   */\n      0x00\n        /* \"#utility.yul\":629:630   */\n      dup1\n        /* \"#utility.yul\":622:634   */\n      revert\n        /* \"#utility.yul\":769:891   */\n    tag_52:\n        /* \"#utility.yul\":842:866   */\n      tag_94\n        /* \"#utility.yul\":860:865   */\n      dup2\n        /* \"#utility.yul\":842:866   */\n      tag_47\n      jump\t// in\n    tag_94:\n        /* \"#utility.yul\":835:840   */\n      dup2\n        /* \"#utility.yul\":832:867   */\n      eq\n        /* \"#utility.yul\":822:885   */\n      tag_95\n      jumpi\n        /* \"#utility.yul\":881:882   */\n      0x00\n        /* \"#utility.yul\":878:879   */\n      dup1\n        /* \"#utility.yul\":871:883   */\n      revert\n        /* \"#utility.yul\":822:885   */\n    tag_95:\n        /* \"#utility.yul\":769:891   */\n      pop\n      jump\t// out\n        /* \"#utility.yul\":897:1036   */\n    tag_53:\n        /* \"#utility.yul\":943:948   */\n      0x00\n        /* \"#utility.yul\":981:987   */\n      dup2\n        /* \"#utility.yul\":968:988   */\n      calldataload\n        /* \"#utility.yul\":959:988   */\n      swap1\n      pop\n        /* \"#utility.yul\":997:1030   */\n      tag_97\n        /* \"#utility.yul\":1024:1029   */\n      dup2\n        /* \"#utility.yul\":997:1030   */\n      tag_52\n      jump\t// in\n    tag_97:\n        /* \"#utility.yul\":897:1036   */\n      swap3\n      swap2\n      pop\n      pop\n      jump\t// out\n        /* \"#utility.yul\":1042:1371   */\n    tag_13:\n        /* \"#utility.yul\":1101:1107   */\n      0x00\n        /* \"#utility.yul\":1150:1152   */\n      0x20\n        /* \"#utility.yul\":1138:1147   */\n      dup3\n        /* \"#utility.yul\":1129:1136   */\n      dup5\n        /* \"#utility.yul\":1125:1148   */\n      sub\n        /* \"#utility.yul\":1121:1153   */\n      slt\n        /* \"#utility.yul\":1118:1237   */\n      iszero\n      tag_99\n      jumpi\n        /* \"#utility.yul\":1156:1235   */\n      tag_100\n      tag_50\n      jump\t// in\n    tag_100:\n        /* \"#utility.yul\":1118:1237   */\n    tag_99:\n        /* \"#utility.yul\":1276:1277   */\n      0x00\n        /* \"#utility.yul\":1301:1354   */\n      tag_101\n        /* \"#utility.yul\":1346:1353   */\n      dup5\n        /* \"#utility.yul\":1337:1343   */\n      dup3\n        /* \"#utility.yul\":1326:1335   */\n      dup6\n        /* \"#utility.yul\":1322:1344   */\n      add\n        /* \"#utility.yul\":1301:1354   */\n      tag_53\n      jump\t// in\n    tag_101:\n        /* \"#utility.yul\":1291:1354   */\n      swap2\n      pop\n        /* \"#utility.yul\":1247:1364   */\n      pop\n        /* \"#utility.yul\":1042:1371   */\n      swap3\n      swap2\n      pop\n      pop\n      jump\t// out\n        /* \"#utility.yul\":1377:1476   */\n    tag_54:\n        /* \"#utility.yul\":1429:1435   */\n      0x00\n        /* \"#utility.yul\":1463:1468   */\n      dup2\n        /* \"#utility.yul\":1457:1469   */\n      mload\n        /* \"#utility.yul\":1447:1469   */\n      swap1\n      pop\n        /* \"#utility.yul\":1377:1476   */\n      swap2\n      swap1\n      pop\n      jump\t// out\n        /* \"#utility.yul\":1482:1651   */\n    tag_55:\n        /* \"#utility.yul\":1566:1577   */\n      0x00\n        /* \"#utility.yul\":1600:1606   */\n      dup3\n        /* \"#utility.yul\":1595:1598   */\n      dup3\n        /* \"#utility.yul\":1588:1607   */\n      mstore\n        /* \"#utility.yul\":1640:1644   */\n      0x20\n        /* \"#utility.yul\":1635:1638   */\n      dup3\n        /* \"#utility.yul\":1631:1645   */\n      add\n        /* \"#utility.yul\":1616:1645   */\n      swap1\n      pop\n        /* \"#utility.yul\":1482:1651   */\n      swap3\n      swap2\n      pop\n      pop\n      jump\t// out\n        /* \"#utility.yul\":1657:1903   */\n    tag_56:\n        /* \"#utility.yul\":1738:1739   */\n      0x00\n        /* \"#utility.yul\":1748:1861   */\n    tag_105:\n        /* \"#utility.yul\":1762:1768   */\n      dup4\n        /* \"#utility.yul\":1759:1760   */\n      dup2\n        /* \"#utility.yul\":1756:1769   */\n      lt\n        /* \"#utility.yul\":1748:1861   */\n      iszero\n      tag_107\n      jumpi\n        /* \"#utility.yul\":1847:1848   */\n      dup1\n        /* \"#utility.yul\":1842:1845   */\n      dup3\n        /* \"#utility.yul\":1838:1849   */\n      add\n        /* \"#utility.yul\":1832:1850   */\n      mload\n        /* \"#utility.yul\":1828:1829   */\n      dup2\n        /* \"#utility.yul\":1823:1826   */\n      dup5\n        /* \"#utility.yul\":1819:1830   */\n      add\n        /* \"#utility.yul\":1812:1851   */\n      mstore\n        /* \"#utility.yul\":1784:1786   */\n      0x20\n        /* \"#utility.yul\":1781:1782   */\n      dup2\n        /* \"#utility.yul\":1777:1787   */\n      add\n        /* \"#utility.yul\":1772:1787   */\n      swap1\n      pop\n        /* \"#utility.yul\":1748:1861   */\n      jump(tag_105)\n    tag_107:\n        /* \"#utility.yul\":1895:1896   */\n      0x00\n        /* \"#utility.yul\":1886:1892   */\n      dup5\n        /* \"#utility.yul\":1881:1884   */\n      dup5\n        /* \"#utility.yul\":1877:1893   */\n      add\n        /* \"#utility.yul\":1870:1897   */\n      mstore\n        /* \"#utility.yul\":1719:1903   */\n      pop\n        /* \"#utility.yul\":1657:1903   */\n      pop\n      pop\n      pop\n      jump\t// out\n        /* \"#utility.yul\":1909:2011   */\n    tag_57:\n        /* \"#utility.yul\":1950:1956   */\n      0x00\n        /* \"#utility.yul\":2001:2003   */\n      0x1f\n        /* \"#utility.yul\":1997:2004   */\n      not\n        /* \"#utility.yul\":1992:1994   */\n      0x1f\n        /* \"#utility.yul\":1985:1990   */\n      dup4\n        /* \"#utility.yul\":1981:1995   */\n      add\n        /* \"#utility.yul\":1977:2005   */\n      and\n        /* \"#utility.yul\":1967:2005   */\n      swap1\n      pop\n        /* \"#utility.yul\":1909:2011   */\n      swap2\n      swap1\n      pop\n      jump\t// out\n        /* \"#utility.yul\":2017:2394   */\n    tag_58:\n        /* \"#utility.yul\":2105:2108   */\n      0x00\n        /* \"#utility.yul\":2133:2172   */\n      tag_110\n        /* \"#utility.yul\":2166:2171   */\n      dup3\n        /* \"#utility.yul\":2133:2172   */\n      tag_54\n      jump\t// in\n    tag_110:\n        /* \"#utility.yul\":2188:2259   */\n      tag_111\n        /* \"#utility.yul\":2252:2258   */\n      dup2\n        /* \"#utility.yul\":2247:2250   */\n      dup6\n        /* \"#utility.yul\":2188:2259   */\n      tag_55\n      jump\t// in\n    tag_111:\n        /* \"#utility.yul\":2181:2259   */\n      swap4\n      pop\n        /* \"#utility.yul\":2268:2333   */\n      tag_112\n        /* \"#utility.yul\":2326:2332   */\n      dup2\n        /* \"#utility.yul\":2321:2324   */\n      dup6\n        /* \"#utility.yul\":2314:2318   */\n      0x20\n        /* \"#utility.yul\":2307:2312   */\n      dup7\n        /* \"#utility.yul\":2303:2319   */\n      add\n        /* \"#utility.yul\":2268:2333   */\n      tag_56\n      jump\t// in\n    tag_112:\n        /* \"#utility.yul\":2358:2387   */\n      tag_113\n        /* \"#utility.yul\":2380:2386   */\n      dup2\n        /* \"#utility.yul\":2358:2387   */\n      tag_57\n      jump\t// in\n    tag_113:\n        /* \"#utility.yul\":2353:2356   */\n      dup5\n        /* \"#utility.yul\":2349:2388   */\n      add\n        /* \"#utility.yul\":2342:2388   */\n      swap2\n      pop\n        /* \"#utility.yul\":2109:2394   */\n      pop\n        /* \"#utility.yul\":2017:2394   */\n      swap3\n      swap2\n      pop\n      pop\n      jump\t// out\n        /* \"#utility.yul\":2400:2713   */\n    tag_16:\n        /* \"#utility.yul\":2513:2517   */\n      0x00\n        /* \"#utility.yul\":2551:2553   */\n      0x20\n        /* \"#utility.yul\":2540:2549   */\n      dup3\n        /* \"#utility.yul\":2536:2554   */\n      add\n        /* \"#utility.yul\":2528:2554   */\n      swap1\n      pop\n        /* \"#utility.yul\":2600:2609   */\n      dup2\n        /* \"#utility.yul\":2594:2598   */\n      dup2\n        /* \"#utility.yul\":2590:2610   */\n      sub\n        /* \"#utility.yul\":2586:2587   */\n      0x00\n        /* \"#utility.yul\":2575:2584   */\n      dup4\n        /* \"#utility.yul\":2571:2588   */\n      add\n        /* \"#utility.yul\":2564:2611   */\n      mstore\n        /* \"#utility.yul\":2628:2706   */\n      tag_115\n        /* \"#utility.yul\":2701:2705   */\n      dup2\n        /* \"#utility.yul\":2692:2698   */\n      dup5\n        /* \"#utility.yul\":2628:2706   */\n      tag_58\n      jump\t// in\n    tag_115:\n        /* \"#utility.yul\":2620:2706   */\n      swap1\n      pop\n        /* \"#utility.yul\":2400:2713   */\n      swap3\n      swap2\n      pop\n      pop\n      jump\t// out\n        /* \"#utility.yul\":2719:2843   */\n    tag_59:\n        /* \"#utility.yul\":2796:2802   */\n      0x00\n        /* \"#utility.yul\":2830:2835   */\n      dup2\n        /* \"#utility.yul\":2824:2836   */\n      mload\n        /* \"#utility.yul\":2814:2836   */\n      swap1\n      pop\n        /* \"#utility.yul\":2719:2843   */\n      swap2\n      swap1\n      pop\n      jump\t// out\n        /* \"#utility.yul\":2849:3043   */\n    tag_60:\n        /* \"#utility.yul\":2958:2969   */\n      0x00\n        /* \"#utility.yul\":2992:2998   */\n      dup3\n        /* \"#utility.yul\":2987:2990   */\n      dup3\n        /* \"#utility.yul\":2980:2999   */\n      mstore\n        /* \"#utility.yul\":3032:3036   */\n      0x20\n        /* \"#utility.yul\":3027:3030   */\n      dup3\n        /* \"#utility.yul\":3023:3037   */\n      add\n        /* \"#utility.yul\":3008:3037   */\n      swap1\n      pop\n        /* \"#utility.yul\":2849:3043   */\n      swap3\n      swap2\n      pop\n      pop\n      jump\t// out\n        /* \"#utility.yul\":3049:3191   */\n    tag_61:\n        /* \"#utility.yul\":3126:3130   */\n      0x00\n        /* \"#utility.yul\":3149:3152   */\n      dup2\n        /* \"#utility.yul\":3141:3152   */\n      swap1\n      pop\n        /* \"#utility.yul\":3179:3183   */\n      0x20\n        /* \"#utility.yul\":3174:3177   */\n      dup3\n        /* \"#utility.yul\":3170:3184   */\n      add\n        /* \"#utility.yul\":3162:3184   */\n      swap1\n      pop\n        /* \"#utility.yul\":3049:3191   */\n      swap2\n      swap1\n      pop\n      jump\t// out\n        /* \"#utility.yul\":3197:3356   */\n    tag_62:\n        /* \"#utility.yul\":3271:3282   */\n      0x00\n        /* \"#utility.yul\":3305:3311   */\n      dup3\n        /* \"#utility.yul\":3300:3303   */\n      dup3\n        /* \"#utility.yul\":3293:3312   */\n      mstore\n        /* \"#utility.yul\":3345:3349   */\n      0x20\n        /* \"#utility.yul\":3340:3343   */\n      dup3\n        /* \"#utility.yul\":3336:3350   */\n      add\n        /* \"#utility.yul\":3321:3350   */\n      swap1\n      pop\n        /* \"#utility.yul\":3197:3356   */\n      swap3\n      swap2\n      pop\n      pop\n      jump\t// out\n        /* \"#utility.yul\":3362:3719   */\n    tag_63:\n        /* \"#utility.yul\":3440:3443   */\n      0x00\n        /* \"#utility.yul\":3468:3507   */\n      tag_121\n        /* \"#utility.yul\":3501:3506   */\n      dup3\n        /* \"#utility.yul\":3468:3507   */\n      tag_54\n      jump\t// in\n    tag_121:\n        /* \"#utility.yul\":3523:3584   */\n      tag_122\n        /* \"#utility.yul\":3577:3583   */\n      dup2\n        /* \"#utility.yul\":3572:3575   */\n      dup6\n        /* \"#utility.yul\":3523:3584   */\n      tag_62\n      jump\t// in\n    tag_122:\n        /* \"#utility.yul\":3516:3584   */\n      swap4\n      pop\n        /* \"#utility.yul\":3593:3658   */\n      tag_123\n        /* \"#utility.yul\":3651:3657   */\n      dup2\n        /* \"#utility.yul\":3646:3649   */\n      dup6\n        /* \"#utility.yul\":3639:3643   */\n      0x20\n        /* \"#utility.yul\":3632:3637   */\n      dup7\n        /* \"#utility.yul\":3628:3644   */\n      add\n        /* \"#utility.yul\":3593:3658   */\n      tag_56\n      jump\t// in\n    tag_123:\n        /* \"#utility.yul\":3683:3712   */\n      tag_124\n        /* \"#utility.yul\":3705:3711   */\n      dup2\n        /* \"#utility.yul\":3683:3712   */\n      tag_57\n      jump\t// in\n    tag_124:\n        /* \"#utility.yul\":3678:3681   */\n      dup5\n        /* \"#utility.yul\":3674:3713   */\n      add\n        /* \"#utility.yul\":3667:3713   */\n      swap2\n      pop\n        /* \"#utility.yul\":3444:3719   */\n      pop\n        /* \"#utility.yul\":3362:3719   */\n      swap3\n      swap2\n      pop\n      pop\n      jump\t// out\n        /* \"#utility.yul\":3725:3921   */\n    tag_64:\n        /* \"#utility.yul\":3814:3824   */\n      0x00\n        /* \"#utility.yul\":3849:3915   */\n      tag_126\n        /* \"#utility.yul\":3911:3914   */\n      dup4\n        /* \"#utility.yul\":3903:3909   */\n      dup4\n        /* \"#utility.yul\":3849:3915   */\n      tag_63\n      jump\t// in\n    tag_126:\n        /* \"#utility.yul\":3835:3915   */\n      swap1\n      pop\n        /* \"#utility.yul\":3725:3921   */\n      swap3\n      swap2\n      pop\n      pop\n      jump\t// out\n        /* \"#utility.yul\":3927:4050   */\n    tag_65:\n        /* \"#utility.yul\":4007:4011   */\n      0x00\n        /* \"#utility.yul\":4039:4043   */\n      0x20\n        /* \"#utility.yul\":4034:4037   */\n      dup3\n        /* \"#utility.yul\":4030:4044   */\n      add\n        /* \"#utility.yul\":4022:4044   */\n      swap1\n      pop\n        /* \"#utility.yul\":3927:4050   */\n      swap2\n      swap1\n      pop\n      jump\t// out\n        /* \"#utility.yul\":4084:5075   */\n    tag_66:\n        /* \"#utility.yul\":4223:4226   */\n      0x00\n        /* \"#utility.yul\":4252:4316   */\n      tag_129\n        /* \"#utility.yul\":4310:4315   */\n      dup3\n        /* \"#utility.yul\":4252:4316   */\n      tag_59\n      jump\t// in\n    tag_129:\n        /* \"#utility.yul\":4332:4428   */\n      tag_130\n        /* \"#utility.yul\":4421:4427   */\n      dup2\n        /* \"#utility.yul\":4416:4419   */\n      dup6\n        /* \"#utility.yul\":4332:4428   */\n      tag_60\n      jump\t// in\n    tag_130:\n        /* \"#utility.yul\":4325:4428   */\n      swap4\n      pop\n        /* \"#utility.yul\":4454:4457   */\n      dup4\n        /* \"#utility.yul\":4499:4503   */\n      0x20\n        /* \"#utility.yul\":4491:4497   */\n      dup3\n        /* \"#utility.yul\":4487:4504   */\n      mul\n        /* \"#utility.yul\":4482:4485   */\n      dup6\n        /* \"#utility.yul\":4478:4505   */\n      add\n        /* \"#utility.yul\":4529:4595   */\n      tag_131\n        /* \"#utility.yul\":4589:4594   */\n      dup6\n        /* \"#utility.yul\":4529:4595   */\n      tag_61\n      jump\t// in\n    tag_131:\n        /* \"#utility.yul\":4618:4625   */\n      dup1\n        /* \"#utility.yul\":4649:4650   */\n      0x00\n        /* \"#utility.yul\":4634:5030   */\n    tag_132:\n        /* \"#utility.yul\":4659:4665   */\n      dup6\n        /* \"#utility.yul\":4656:4657   */\n      dup2\n        /* \"#utility.yul\":4653:4666   */\n      lt\n        /* \"#utility.yul\":4634:5030   */\n      iszero\n      tag_134\n      jumpi\n        /* \"#utility.yul\":4730:4739   */\n      dup5\n        /* \"#utility.yul\":4724:4728   */\n      dup5\n        /* \"#utility.yul\":4720:4740   */\n      sub\n        /* \"#utility.yul\":4715:4718   */\n      dup10\n        /* \"#utility.yul\":4708:4741   */\n      mstore\n        /* \"#utility.yul\":4781:4787   */\n      dup2\n        /* \"#utility.yul\":4775:4788   */\n      mload\n        /* \"#utility.yul\":4809:4893   */\n      tag_135\n        /* \"#utility.yul\":4888:4892   */\n      dup6\n        /* \"#utility.yul\":4873:4886   */\n      dup3\n        /* \"#utility.yul\":4809:4893   */\n      tag_64\n      jump\t// in\n    tag_135:\n        /* \"#utility.yul\":4801:4893   */\n      swap5\n      pop\n        /* \"#utility.yul\":4916:4986   */\n      tag_136\n        /* \"#utility.yul\":4979:4985   */\n      dup4\n        /* \"#utility.yul\":4916:4986   */\n      tag_65\n      jump\t// in\n    tag_136:\n        /* \"#utility.yul\":4906:4986   */\n      swap3\n      pop\n        /* \"#utility.yul\":5015:5019   */\n      0x20\n        /* \"#utility.yul\":5010:5013   */\n      dup11\n        /* \"#utility.yul\":5006:5020   */\n      add\n        /* \"#utility.yul\":4999:5020   */\n      swap10\n      pop\n        /* \"#utility.yul\":4694:5030   */\n      pop\n        /* \"#utility.yul\":4681:4682   */\n      0x01\n        /* \"#utility.yul\":4678:4679   */\n      dup2\n        /* \"#utility.yul\":4674:4683   */\n      add\n        /* \"#utility.yul\":4669:4683   */\n      swap1\n      pop\n        /* \"#utility.yul\":4634:5030   */\n      jump(tag_132)\n    tag_134:\n        /* \"#utility.yul\":4638:4652   */\n      pop\n        /* \"#utility.yul\":5046:5050   */\n      dup3\n        /* \"#utility.yul\":5039:5050   */\n      swap8\n      pop\n        /* \"#utility.yul\":5066:5069   */\n      dup8\n        /* \"#utility.yul\":5059:5069   */\n      swap6\n      pop\n        /* \"#utility.yul\":4228:5075   */\n      pop\n      pop\n      pop\n      pop\n      pop\n        /* \"#utility.yul\":4084:5075   */\n      swap3\n      swap2\n      pop\n      pop\n      jump\t// out\n        /* \"#utility.yul\":5081:5494   */\n    tag_20:\n        /* \"#utility.yul\":5244:5248   */\n      0x00\n        /* \"#utility.yul\":5282:5284   */\n      0x20\n        /* \"#utility.yul\":5271:5280   */\n      dup3\n        /* \"#utility.yul\":5267:5285   */\n      add\n        /* \"#utility.yul\":5259:5285   */\n      swap1\n      pop\n        /* \"#utility.yul\":5331:5340   */\n      dup2\n        /* \"#utility.yul\":5325:5329   */\n      dup2\n        /* \"#utility.yul\":5321:5341   */\n      sub\n        /* \"#utility.yul\":5317:5318   */\n      0x00\n        /* \"#utility.yul\":5306:5315   */\n      dup4\n        /* \"#utility.yul\":5302:5319   */\n      add\n        /* \"#utility.yul\":5295:5342   */\n      mstore\n        /* \"#utility.yul\":5359:5487   */\n      tag_138\n        /* \"#utility.yul\":5482:5486   */\n      dup2\n        /* \"#utility.yul\":5473:5479   */\n      dup5\n        /* \"#utility.yul\":5359:5487   */\n      tag_66\n      jump\t// in\n    tag_138:\n        /* \"#utility.yul\":5351:5487   */\n      swap1\n      pop\n        /* \"#utility.yul\":5081:5494   */\n      swap3\n      swap2\n      pop\n      pop\n      jump\t// out\n        /* \"#utility.yul\":5500:5680   */\n    tag_67:\n        /* \"#utility.yul\":5548:5625   */\n      0x4e487b7100000000000000000000000000000000000000000000000000000000\n        /* \"#utility.yul\":5545:5546   */\n      0x00\n        /* \"#utility.yul\":5538:5626   */\n      mstore\n        /* \"#utility.yul\":5645:5649   */\n      0x22\n        /* \"#utility.yul\":5642:5643   */\n      0x04\n        /* \"#utility.yul\":5635:5650   */\n      mstore\n        /* \"#utility.yul\":5669:5673   */\n      0x24\n        /* \"#utility.yul\":5666:5667   */\n      0x00\n        /* \"#utility.yul\":5659:5674   */\n      revert\n        /* \"#utility.yul\":5686:6006   */\n    tag_27:\n        /* \"#utility.yul\":5730:5736   */\n      0x00\n        /* \"#utility.yul\":5767:5768   */\n      0x02\n        /* \"#utility.yul\":5761:5765   */\n      dup3\n        /* \"#utility.yul\":5757:5769   */\n      div\n        /* \"#utility.yul\":5747:5769   */\n      swap1\n      pop\n        /* \"#utility.yul\":5814:5815   */\n      0x01\n        /* \"#utility.yul\":5808:5812   */\n      dup3\n        /* \"#utility.yul\":5804:5816   */\n      and\n        /* \"#utility.yul\":5835:5853   */\n      dup1\n        /* \"#utility.yul\":5825:5906   */\n      tag_141\n      jumpi\n        /* \"#utility.yul\":5891:5895   */\n      0x7f\n        /* \"#utility.yul\":5883:5889   */\n      dup3\n        /* \"#utility.yul\":5879:5896   */\n      and\n        /* \"#utility.yul\":5869:5896   */\n      swap2\n      pop\n        /* \"#utility.yul\":5825:5906   */\n    tag_141:\n        /* \"#utility.yul\":5953:5955   */\n      0x20\n        /* \"#utility.yul\":5945:5951   */\n      dup3\n        /* \"#utility.yul\":5942:5956   */\n      lt\n        /* \"#utility.yul\":5922:5940   */\n      dup2\n        /* \"#utility.yul\":5919:5957   */\n      sub\n        /* \"#utility.yul\":5916:6000   */\n      tag_142\n      jumpi\n        /* \"#utility.yul\":5972:5990   */\n      tag_143\n      tag_67\n      jump\t// in\n    tag_143:\n        /* \"#utility.yul\":5916:6000   */\n    tag_142:\n        /* \"#utility.yul\":5737:6006   */\n      pop\n        /* \"#utility.yul\":5686:6006   */\n      swap2\n      swap1\n      pop\n      jump\t// out\n        /* \"#utility.yul\":6012:6192   */\n    tag_68:\n        /* \"#utility.yul\":6060:6137   */\n      0x4e487b7100000000000000000000000000000000000000000000000000000000\n        /* \"#utility.yul\":6057:6058   */\n      0x00\n        /* \"#utility.yul\":6050:6138   */\n      mstore\n        /* \"#utility.yul\":6157:6161   */\n      0x41\n        /* \"#utility.yul\":6154:6155   */\n      0x04\n        /* \"#utility.yul\":6147:6162   */\n      mstore\n        /* \"#utility.yul\":6181:6185   */\n      0x24\n        /* \"#utility.yul\":6178:6179   */\n      0x00\n        /* \"#utility.yul\":6171:6186   */\n      revert\n        /* \"#utility.yul\":6198:6339   */\n    tag_69:\n        /* \"#utility.yul\":6247:6251   */\n      0x00\n        /* \"#utility.yul\":6270:6273   */\n      dup2\n        /* \"#utility.yul\":6262:6273   */\n      swap1\n      pop\n        /* \"#utility.yul\":6293:6296   */\n      dup2\n        /* \"#utility.yul\":6290:6291   */\n      0x00\n        /* \"#utility.yul\":6283:6297   */\n      mstore\n        /* \"#utility.yul\":6327:6331   */\n      0x20\n        /* \"#utility.yul\":6324:6325   */\n      0x00\n        /* \"#utility.yul\":6314:6332   */\n      keccak256\n        /* \"#utility.yul\":6306:6332   */\n      swap1\n      pop\n        /* \"#utility.yul\":6198:6339   */\n      swap2\n      swap1\n      pop\n      jump\t// out\n        /* \"#utility.yul\":6345:6438   */\n    tag_70:\n        /* \"#utility.yul\":6382:6388   */\n      0x00\n        /* \"#utility.yul\":6429:6431   */\n      0x20\n        /* \"#utility.yul\":6424:6426   */\n      0x1f\n        /* \"#utility.yul\":6417:6422   */\n      dup4\n        /* \"#utility.yul\":6413:6427   */\n      add\n        /* \"#utility.yul\":6409:6432   */\n      div\n        /* \"#utility.yul\":6399:6432   */\n      swap1\n      pop\n        /* \"#utility.yul\":6345:6438   */\n      swap2\n      swap1\n      pop\n      jump\t// out\n        /* \"#utility.yul\":6444:6551   */\n    tag_71:\n        /* \"#utility.yul\":6488:6496   */\n      0x00\n        /* \"#utility.yul\":6538:6543   */\n      dup3\n        /* \"#utility.yul\":6532:6536   */\n      dup3\n        /* \"#utility.yul\":6528:6544   */\n      shl\n        /* \"#utility.yul\":6507:6544   */\n      swap1\n      pop\n        /* \"#utility.yul\":6444:6551   */\n      swap3\n      swap2\n      pop\n      pop\n      jump\t// out\n        /* \"#utility.yul\":6557:6950   */\n    tag_72:\n        /* \"#utility.yul\":6626:6632   */\n      0x00\n        /* \"#utility.yul\":6676:6677   */\n      0x08\n        /* \"#utility.yul\":6664:6674   */\n      dup4\n        /* \"#utility.yul\":6660:6678   */\n      mul\n        /* \"#utility.yul\":6699:6796   */\n      tag_149\n        /* \"#utility.yul\":6729:6795   */\n      0xffffffffffffffffffffffffffffffffffffffffffffffffffffffffffffffff\n        /* \"#utility.yul\":6718:6727   */\n      dup3\n        /* \"#utility.yul\":6699:6796   */\n      tag_71\n      jump\t// in\n    tag_149:\n        /* \"#utility.yul\":6817:6856   */\n      tag_150\n        /* \"#utility.yul\":6847:6855   */\n      dup7\n        /* \"#utility.yul\":6836:6845   */\n      dup4\n        /* \"#utility.yul\":6817:6856   */\n      tag_71\n      jump\t// in\n    tag_150:\n        /* \"#utility.yul\":6805:6856   */\n      swap6\n      pop\n        /* \"#utility.yul\":6889:6893   */\n      dup1\n        /* \"#utility.yul\":6885:6894   */\n      not\n        /* \"#utility.yul\":6878:6883   */\n      dup5\n        /* \"#utility.yul\":6874:6895   */\n      and\n        /* \"#utility.yul\":6865:6895   */\n      swap4\n      pop\n        /* \"#utility.yul\":6938:6942   */\n      dup1\n        /* \"#utility.yul\":6928:6936   */\n      dup7\n        /* \"#utility.yul\":6924:6943   */\n      and\n        /* \"#utility.yul\":6917:6922   */\n      dup5\n        /* \"#utility.yul\":6914:6944   */\n      or\n        /* \"#utility.yul\":6904:6944   */\n      swap3\n      pop\n        /* \"#utility.yul\":6633:6950   */\n      pop\n      pop\n        /* \"#utility.yul\":6557:6950   */\n      swap4\n      swap3\n      pop\n      pop\n      pop\n      jump\t// out\n        /* \"#utility.yul\":6956:7016   */\n    tag_73:\n        /* \"#utility.yul\":6984:6987   */\n      0x00\n        /* \"#utility.yul\":7005:7010   */\n      dup2\n        /* \"#utility.yul\":6998:7010   */\n      swap1\n      pop\n        /* \"#utility.yul\":6956:7016   */\n      swap2\n      swap1\n      pop\n      jump\t// out\n        /* \"#utility.yul\":7022:7164   */\n    tag_74:\n        /* \"#utility.yul\":7072:7081   */\n      0x00\n        /* \"#utility.yul\":7105:7158   */\n      tag_153\n        /* \"#utility.yul\":7123:7157   */\n      tag_154\n        /* \"#utility.yul\":7132:7156   */\n      tag_155\n        /* \"#utility.yul\":7150:7155   */\n      dup5\n        /* \"#utility.yul\":7132:7156   */\n      tag_47\n      jump\t// in\n    tag_155:\n        /* \"#utility.yul\":7123:7157   */\n      tag_73\n      jump\t// in\n    tag_154:\n        /* \"#utility.yul\":7105:7158   */\n      tag_47\n      jump\t// in\n    tag_153:\n        /* \"#utility.yul\":7092:7158   */\n      swap1\n      pop\n        /* \"#utility.yul\":7022:7164   */\n      swap2\n      swap1\n      pop\n      jump\t// out\n        /* \"#utility.yul\":7170:7245   */\n    tag_75:\n        /* \"#utility.yul\":7213:7216   */\n      0x00\n        /* \"#utility.yul\":7234:7239   */\n      dup2\n        /* \"#utility.yul\":7227:7239   */\n      swap1\n      pop\n        /* \"#utility.yul\":7170:7245   */\n      swap2\n      swap1\n      pop\n      jump\t// out\n        /* \"#utility.yul\":7251:7520   */\n    tag_76:\n        /* \"#utility.yul\":7361:7400   */\n      tag_158\n        /* \"#utility.yul\":7392:7399   */\n      dup4\n        /* \"#utility.yul\":7361:7400   */\n      tag_74\n      jump\t// in\n    tag_158:\n        /* \"#utility.yul\":7422:7513   */\n      tag_159\n        /* \"#utility.yul\":7471:7512   */\n      tag_160\n        /* \"#utility.yul\":7495:7511   */\n      dup3\n        /* \"#utility.yul\":7471:7512   */\n      tag_75\n      jump\t// in\n    tag_160:\n        /* \"#utility.yul\":7463:7469   */\n      dup5\n        /* \"#utility.yul\":7456:7460   */\n      dup5\n        /* \"#utility.yul\":7450:7461   */\n      sload\n        /* \"#utility.yul\":7422:7513   */\n      tag_72\n      jump\t// in\n    tag_159:\n        /* \"#utility.yul\":7416:7420   */\n      dup3\n        /* \"#utility.yul\":7409:7514   */\n      sstore\n        /* \"#utility.yul\":7327:7520   */\n      pop\n        /* \"#utility.yul\":7251:7520   */\n      pop\n      pop\n      pop\n      jump\t// out\n        /* \"#utility.yul\":7526:7599   */\n    tag_77:\n        /* \"#utility.yul\":7571:7574   */\n      0x00\n        /* \"#utility.yul\":7526:7599   */\n      swap1\n      jump\t// out\n        /* \"#utility.yul\":7605:7794   */\n    tag_78:\n        /* \"#utility.yul\":7682:7714   */\n      tag_163\n      tag_77\n      jump\t// in\n    tag_163:\n        /* \"#utility.yul\":7723:7788   */\n      tag_164\n        /* \"#utility.yul\":7781:7787   */\n      dup2\n        /* \"#utility.yul\":7773:7779   */\n      dup5\n        /* \"#utility.yul\":7767:7771   */\n      dup5\n        /* \"#utility.yul\":7723:7788   */\n      tag_76\n      jump\t// in\n    tag_164:\n        /* \"#utility.yul\":7658:7794   */\n      pop\n        /* \"#utility.yul\":7605:7794   */\n      pop\n      pop\n      jump\t// out\n        /* \"#utility.yul\":7800:7986   */\n    tag_79:\n        /* \"#utility.yul\":7860:7980   */\n    tag_166:\n        /* \"#utility.yul\":7877:7880   */\n      dup2\n        /* \"#utility.yul\":7870:7875   */\n      dup2\n        /* \"#utility.yul\":7867:7881   */\n      lt\n        /* \"#utility.yul\":7860:7980   */\n      iszero\n      tag_168\n      jumpi\n        /* \"#utility.yul\":7931:7970   */\n      tag_169\n        /* \"#utility.yul\":7968:7969   */\n      0x00\n        /* \"#utility.yul\":7961:7966   */\n      dup3\n        /* \"#utility.yul\":7931:7970   */\n      tag_78\n      jump\t// in\n    tag_169:\n        /* \"#utility.yul\":7904:7905   */\n      0x01\n        /* \"#utility.yul\":7897:7902   */\n      dup2\n        /* \"#utility.yul\":7893:7906   */\n      add\n        /* \"#utility.yul\":7884:7906   */\n      swap1\n      pop\n        /* \"#utility.yul\":7860:7980   */\n      jump(tag_166)\n    tag_168:\n        /* \"#utility.yul\":7800:7986   */\n      pop\n      pop\n      jump\t// out\n        /* \"#utility.yul\":7992:8535   */\n    tag_80:\n        /* \"#utility.yul\":8093:8095   */\n      0x1f\n        /* \"#utility.yul\":8088:8091   */\n      dup3\n        /* \"#utility.yul\":8085:8096   */\n      gt\n        /* \"#utility.yul\":8082:8528   */\n      iszero\n      tag_171\n      jumpi\n        /* \"#utility.yul\":8127:8165   */\n      tag_172\n        /* \"#utility.yul\":8159:8164   */\n      dup2\n        /* \"#utility.yul\":8127:8165   */\n      tag_69\n      jump\t// in\n    tag_172:\n        /* \"#utility.yul\":8211:8240   */\n      tag_173\n        /* \"#utility.yul\":8229:8239   */\n      dup5\n        /* \"#utility.yul\":8211:8240   */\n      tag_70\n      jump\t// in\n    tag_173:\n        /* \"#utility.yul\":8201:8209   */\n      dup2\n        /* \"#utility.yul\":8197:8241   */\n      add\n        /* \"#utility.yul\":8394:8396   */\n      0x20\n        /* \"#utility.yul\":8382:8392   */\n      dup6\n        /* \"#utility.yul\":8379:8397   */\n      lt\n        /* \"#utility.yul\":8376:8425   */\n      iszero\n      tag_174\n      jumpi\n        /* \"#utility.yul\":8415:8423   */\n      dup2\n        /* \"#utility.yul\":8400:8423   */\n      swap1\n      pop\n        /* \"#utility.yul\":8376:8425   */\n    tag_174:\n        /* \"#utility.yul\":8438:8518   */\n      tag_175\n        /* \"#utility.yul\":8494:8516   */\n      tag_176\n        /* \"#utility.yul\":8512:8515   */\n      dup6\n        /* \"#utility.yul\":8494:8516   */\n      tag_70\n      jump\t// in\n    tag_176:\n        /* \"#utility.yul\":8484:8492   */\n      dup4\n        /* \"#utility.yul\":8480:8517   */\n      add\n        /* \"#utility.yul\":8467:8478   */\n      dup3\n        /* \"#utility.yul\":8438:8518   */\n      tag_79\n      jump\t// in\n    tag_175:\n        /* \"#utility.yul\":8097:8528   */\n      pop\n      pop\n        /* \"#utility.yul\":8082:8528   */\n    tag_171:\n        /* \"#utility.yul\":7992:8535   */\n      pop\n      pop\n      pop\n      jump\t// out\n        /* \"#utility.yul\":8541:8658   */\n    tag_81:\n        /* \"#utility.yul\":8595:8603   */\n      0x00\n        /* \"#utility.yul\":8645:8650   */\n      dup3\n        /* \"#utility.yul\":8639:8643   */\n      dup3\n        /* \"#utility.yul\":8635:8651   */\n      shr\n        /* \"#utility.yul\":8614:8651   */\n      swap1\n      pop\n        /* \"#utility.yul\":8541:8658   */\n      swap3\n      swap2\n      pop\n      pop\n      jump\t// out\n        /* \"#utility.yul\":8664:8833   */\n    tag_82:\n        /* \"#utility.yul\":8708:8714   */\n      0x00\n        /* \"#utility.yul\":8741:8792   */\n      tag_179\n        /* \"#utility.yul\":8789:8790   */\n      0x00\n        /* \"#utility.yul\":8785:8791   */\n      not\n        /* \"#utility.yul\":8777:8782   */\n      dup5\n        /* \"#utility.yul\":8774:8775   */\n      0x08\n        /* \"#utility.yul\":8770:8783   */\n      mul\n        /* \"#utility.yul\":8741:8792   */\n      tag_81\n      jump\t// in\n    tag_179:\n        /* \"#utility.yul\":8737:8793   */\n      not\n        /* \"#utility.yul\":8822:8826   */\n      dup1\n        /* \"#utility.yul\":8816:8820   */\n      dup4\n        /* \"#utility.yul\":8812:8827   */\n      and\n        /* \"#utility.yul\":8802:8827   */\n      swap2\n      pop\n        /* \"#utility.yul\":8715:8833   */\n      pop\n        /* \"#utility.yul\":8664:8833   */\n      swap3\n      swap2\n      pop\n      pop\n      jump\t// out\n        /* \"#utility.yul\":8838:9133   */\n    tag_83:\n        /* \"#utility.yul\":8914:8918   */\n      0x00\n        /* \"#utility.yul\":9060:9089   */\n      tag_181\n        /* \"#utility.yul\":9085:9088   */\n      dup4\n        /* \"#utility.yul\":9079:9083   */\n      dup4\n        /* \"#utility.yul\":9060:9089   */\n      tag_82\n      jump\t// in\n    tag_181:\n        /* \"#utility.yul\":9052:9089   */\n      swap2\n      pop\n        /* \"#utility.yul\":9122:9125   */\n      dup3\n        /* \"#utility.yul\":9119:9120   */\n      0x02\n        /* \"#utility.yul\":9115:9126   */\n      mul\n        /* \"#utility.yul\":9109:9113   */\n      dup3\n        /* \"#utility.yul\":9106:9127   */\n      or\n        /* \"#utility.yul\":9098:9127   */\n      swap1\n      pop\n        /* \"#utility.yul\":8838:9133   */\n      swap3\n      swap2\n      pop\n      pop\n      jump\t// out\n        /* \"#utility.yul\":9138:10533   */\n    tag_44:\n        /* \"#utility.yul\":9255:9292   */\n      tag_183\n        /* \"#utility.yul\":9288:9291   */\n      dup3\n        /* \"#utility.yul\":9255:9292   */\n      tag_54\n      jump\t// in\n    tag_183:\n        /* \"#utility.yul\":9357:9375   */\n      0xffffffffffffffff\n        /* \"#utility.yul\":9349:9355   */\n      dup2\n        /* \"#utility.yul\":9346:9376   */\n      gt\n        /* \"#utility.yul\":9343:9399   */\n      iszero\n      tag_184\n      jumpi\n        /* \"#utility.yul\":9379:9397   */\n      tag_185\n      tag_68\n      jump\t// in\n    tag_185:\n        /* \"#utility.yul\":9343:9399   */\n    tag_184:\n        /* \"#utility.yul\":9423:9461   */\n      tag_186\n        /* \"#utility.yul\":9455:9459   */\n      dup3\n        /* \"#utility.yul\":9449:9460   */\n      sload\n        /* \"#utility.yul\":9423:9461   */\n      tag_27\n      jump\t// in\n    tag_186:\n        /* \"#utility.yul\":9508:9575   */\n      tag_187\n        /* \"#utility.yul\":9568:9574   */\n      dup3\n        /* \"#utility.yul\":9560:9566   */\n      dup3\n        /* \"#utility.yul\":9554:9558   */\n      dup6\n        /* \"#utility.yul\":9508:9575   */\n      tag_80\n      jump\t// in\n    tag_187:\n        /* \"#utility.yul\":9602:9603   */\n      0x00\n        /* \"#utility.yul\":9626:9630   */\n      0x20\n        /* \"#utility.yul\":9613:9630   */\n      swap1\n      pop\n        /* \"#utility.yul\":9658:9660   */\n      0x1f\n        /* \"#utility.yul\":9650:9656   */\n      dup4\n        /* \"#utility.yul\":9647:9661   */\n      gt\n        /* \"#utility.yul\":9675:9676   */\n      0x01\n        /* \"#utility.yul\":9670:10288   */\n      dup2\n      eq\n      tag_189\n      jumpi\n        /* \"#utility.yul\":10332:10333   */\n      0x00\n        /* \"#utility.yul\":10349:10355   */\n      dup5\n        /* \"#utility.yul\":10346:10423   */\n      iszero\n      tag_190\n      jumpi\n        /* \"#utility.yul\":10398:10407   */\n      dup3\n        /* \"#utility.yul\":10393:10396   */\n      dup8\n        /* \"#utility.yul\":10389:10408   */\n      add\n        /* \"#utility.yul\":10383:10409   */\n      mload\n        /* \"#utility.yul\":10374:10409   */\n      swap1\n      pop\n        /* \"#utility.yul\":10346:10423   */\n    tag_190:\n        /* \"#utility.yul\":10449:10516   */\n      tag_191\n        /* \"#utility.yul\":10509:10515   */\n      dup6\n        /* \"#utility.yul\":10502:10507   */\n      dup3\n        /* \"#utility.yul\":10449:10516   */\n      tag_83\n      jump\t// in\n    tag_191:\n        /* \"#utility.yul\":10443:10447   */\n      dup7\n        /* \"#utility.yul\":10436:10517   */\n      sstore\n        /* \"#utility.yul\":10305:10527   */\n      pop\n        /* \"#utility.yul\":9640:10527   */\n      jump(tag_188)\n        /* \"#utility.yul\":9670:10288   */\n    tag_189:\n        /* \"#utility.yul\":9722:9726   */\n      0x1f\n        /* \"#utility.yul\":9718:9727   */\n      not\n        /* \"#utility.yul\":9710:9716   */\n      dup5\n        /* \"#utility.yul\":9706:9728   */\n      and\n        /* \"#utility.yul\":9756:9793   */\n      tag_192\n        /* \"#utility.yul\":9788:9792   */\n      dup7\n        /* \"#utility.yul\":9756:9793   */\n      tag_69\n      jump\t// in\n    tag_192:\n        /* \"#utility.yul\":9815:9816   */\n      0x00\n        /* \"#utility.yul\":9829:10037   */\n    tag_193:\n        /* \"#utility.yul\":9843:9850   */\n      dup3\n        /* \"#utility.yul\":9840:9841   */\n      dup2\n        /* \"#utility.yul\":9837:9851   */\n      lt\n        /* \"#utility.yul\":9829:10037   */\n      iszero\n      tag_195\n      jumpi\n        /* \"#utility.yul\":9922:9931   */\n      dup5\n        /* \"#utility.yul\":9917:9920   */\n      dup10\n        /* \"#utility.yul\":9913:9932   */\n      add\n        /* \"#utility.yul\":9907:9933   */\n      mload\n        /* \"#utility.yul\":9899:9905   */\n      dup3\n        /* \"#utility.yul\":9892:9934   */\n      sstore\n        /* \"#utility.yul\":9973:9974   */\n      0x01\n        /* \"#utility.yul\":9965:9971   */\n      dup3\n        /* \"#utility.yul\":9961:9975   */\n      add\n        /* \"#utility.yul\":9951:9975   */\n      swap2\n      pop\n        /* \"#utility.yul\":10020:10022   */\n      0x20\n        /* \"#utility.yul\":10009:10018   */\n      dup6\n        /* \"#utility.yul\":10005:10023   */\n      add\n        /* \"#utility.yul\":9992:10023   */\n      swap5\n      pop\n        /* \"#utility.yul\":9866:9870   */\n      0x20\n        /* \"#utility.yul\":9863:9864   */\n      dup2\n        /* \"#utility.yul\":9859:9871   */\n      add\n        /* \"#utility.yul\":9854:9871   */\n      swap1\n      pop\n        /* \"#utility.yul\":9829:10037   */\n      jump(tag_193)\n    tag_195:\n        /* \"#utility.yul\":10065:10071   */\n      dup7\n        /* \"#utility.yul\":10056:10063   */\n      dup4\n        /* \"#utility.yul\":10053:10072   */\n      lt\n        /* \"#utility.yul\":10050:10229   */\n      iszero\n      tag_196\n      jumpi\n        /* \"#utility.yul\":10123:10132   */\n      dup5\n        /* \"#utility.yul\":10118:10121   */\n      dup10\n        /* \"#utility.yul\":10114:10133   */\n      add\n        /* \"#utility.yul\":10108:10134   */\n      mload\n        /* \"#utility.yul\":10166:10214   */\n      tag_197\n        /* \"#utility.yul\":10208:10212   */\n      0x1f\n        /* \"#utility.yul\":10200:10206   */\n      dup10\n        /* \"#utility.yul\":10196:10213   */\n      and\n        /* \"#utility.yul\":10185:10194   */\n      dup3\n        /* \"#utility.yul\":10166:10214   */\n      tag_82\n      jump\t// in\n    tag_197:\n        /* \"#utility.yul\":10158:10164   */\n      dup4\n        /* \"#utility.yul\":10151:10215   */\n      sstore\n        /* \"#utility.yul\":10073:10229   */\n      pop\n        /* \"#utility.yul\":10050:10229   */\n    tag_196:\n        /* \"#utility.yul\":10275:10276   */\n      0x01\n        /* \"#utility.yul\":10271:10272   */\n      0x02\n        /* \"#utility.yul\":10263:10269   */\n      dup9\n        /* \"#utility.yul\":10259:10273   */\n      mul\n        /* \"#utility.yul\":10255:10277   */\n      add\n        /* \"#utility.yul\":10249:10253   */\n      dup9\n        /* \"#utility.yul\":10242:10278   */\n      sstore\n        /* \"#utility.yul\":9677:10288   */\n      pop\n      pop\n      pop\n        /* \"#utility.yul\":9640:10527   */\n    tag_188:\n      pop\n        /* \"#utility.yul\":9230:10533   */\n      pop\n      pop\n      pop\n        /* \"#utility.yul\":9138:10533   */\n      pop\n      pop\n      jump\t// out\n\n    auxdata: 0xa26469706673582212206b1f879b6cd530677af60834ba762646aff2e68a1f41399f37a88d6810ee2dd064736f6c63430008130033\n}\n",
				"bytecode": {
					"linkReferences": {},
					"object": "608060405234801561001057600080fd5b506108dd806100206000396000f3fe608060405234801561001057600080fd5b506004361061004c5760003560e01c80630849cc9914610051578063cc3e57d91461006f578063d504ea1d1461009f578063d9bc383f146100bd575b600080fd5b6100596100c7565b6040516100669190610341565b60405180910390f35b6100896004803603810190610084919061038d565b6100d3565b604051610096919061044a565b60405180910390f35b6100a761017f565b6040516100b49190610578565b60405180910390f35b6100c5610258565b005b60008080549050905090565b600081815481106100e357600080fd5b9060005260206000200160009150905080546100fe906105c9565b80601f016020809104026020016040519081016040528092919081815260200182805461012a906105c9565b80156101775780601f1061014c57610100808354040283529160200191610177565b820191906000526020600020905b81548152906001019060200180831161015a57829003601f168201915b505050505081565b60606000805480602002602001604051908101604052809291908181526020016000905b8282101561024f5783829060005260206000200180546101c2906105c9565b80601f01602080910402602001604051908101604052809291908181526020018280546101ee906105c9565b801561023b5780601f106102105761010080835404028352916020019161023b565b820191906000526020600020905b81548152906001019060200180831161021e57829003601f168201915b5050505050815260200190600101906101a3565b50505050905090565b600080600181540180825580915050600190039060005260206000200160006040518060400160405280600281526020017f4869000000000000000000000000000000000000000000000000000000000000815250909190915090816102be91906107d5565b50600080600181540180825580915050600190039060005260206000200160006040518060400160405280600381526020017f42796500000000000000000000000000000000000000000000000000000000008152509091909150908161032591906107d5565b50565b6000819050919050565b61033b81610328565b82525050565b60006020820190506103566000830184610332565b92915050565b600080fd5b61036a81610328565b811461037557600080fd5b50565b60008135905061038781610361565b92915050565b6000602082840312156103a3576103a261035c565b5b60006103b184828501610378565b91505092915050565b600081519050919050565b600082825260208201905092915050565b60005b838110156103f45780820151818401526020810190506103d9565b60008484015250505050565b6000601f19601f8301169050919050565b600061041c826103ba565b61042681856103c5565b93506104368185602086016103d6565b61043f81610400565b840191505092915050565b600060208201905081810360008301526104648184610411565b905092915050565b600081519050919050565b600082825260208201905092915050565b6000819050602082019050919050565b600082825260208201905092915050565b60006104b4826103ba565b6104be8185610498565b93506104ce8185602086016103d6565b6104d781610400565b840191505092915050565b60006104ee83836104a9565b905092915050565b6000602082019050919050565b600061050e8261046c565b6105188185610477565b93508360208202850161052a85610488565b8060005b85811015610566578484038952815161054785826104e2565b9450610552836104f6565b925060208a0199505060018101905061052e565b50829750879550505050505092915050565b600060208201905081810360008301526105928184610503565b905092915050565b7f4e487b7100000000000000000000000000000000000000000000000000000000600052602260045260246000fd5b600060028204905060018216806105e157607f821691505b6020821081036105f4576105f361059a565b5b50919050565b7f4e487b7100000000000000000000000000000000000000000000000000000000600052604160045260246000fd5b60008190508160005260206000209050919050565b60006020601f8301049050919050565b600082821b905092915050565b60006008830261068b7fffffffffffffffffffffffffffffffffffffffffffffffffffffffffffffffff8261064e565b610695868361064e565b95508019841693508086168417925050509392505050565b6000819050919050565b60006106d26106cd6106c884610328565b6106ad565b610328565b9050919050565b6000819050919050565b6106ec836106b7565b6107006106f8826106d9565b84845461065b565b825550505050565b600090565b610715610708565b6107208184846106e3565b505050565b5b818110156107445761073960008261070d565b600181019050610726565b5050565b601f8211156107895761075a81610629565b6107638461063e565b81016020851015610772578190505b61078661077e8561063e565b830182610725565b50505b505050565b600082821c905092915050565b60006107ac6000198460080261078e565b1980831691505092915050565b60006107c5838361079b565b9150826002028217905092915050565b6107de826103ba565b67ffffffffffffffff8111156107f7576107f66105fa565b5b61080182546105c9565b61080c828285610748565b600060209050601f83116001811461083f576000841561082d578287015190505b61083785826107b9565b86555061089f565b601f19841661084d86610629565b60005b8281101561087557848901518255600182019150602085019450602081019050610850565b86831015610892578489015161088e601f89168261079b565b8355505b6001600288020188555050505b50505050505056fea26469706673582212206b1f879b6cd530677af60834ba762646aff2e68a1f41399f37a88d6810ee2dd064736f6c63430008130033",
					"opcodes": "PUSH1 0x80 PUSH1 0x40 MSTORE CALLVALUE DUP1 ISZERO PUSH2 0x10 JUMPI PUSH1 0x0 DUP1 REVERT JUMPDEST POP PUSH2 0x8DD DUP1 PUSH2 0x20 PUSH1 0x0 CODECOPY PUSH1 0x0 RETURN INVALID PUSH1 0x80 PUSH1 0x40 MSTORE CALLVALUE DUP1 ISZERO PUSH2 0x10 JUMPI PUSH1 0x0 DUP1 REVERT JUMPDEST POP PUSH1 0x4 CALLDATASIZE LT PUSH2 0x4C JUMPI PUSH1 0x0 CALLDATALOAD PUSH1 0xE0 SHR DUP1 PUSH4 0x849CC99 EQ PUSH2 0x51 JUMPI DUP1 PUSH4 0xCC3E57D9 EQ PUSH2 0x6F JUMPI DUP1 PUSH4 0xD504EA1D EQ PUSH2 0x9F JUMPI DUP1 PUSH4 0xD9BC383F EQ PUSH2 0xBD JUMPI JUMPDEST PUSH1 0x0 DUP1 REVERT JUMPDEST PUSH2 0x59 PUSH2 0xC7 JUMP JUMPDEST PUSH1 0x40 MLOAD PUSH2 0x66 SWAP2 SWAP1 PUSH2 0x341 JUMP JUMPDEST PUSH1 0x40 MLOAD DUP1 SWAP2 SUB SWAP1 RETURN JUMPDEST PUSH2 0x89 PUSH1 0x4 DUP1 CALLDATASIZE SUB DUP2 ADD SWAP1 PUSH2 0x84 SWAP2 SWAP1 PUSH2 0x38D JUMP JUMPDEST PUSH2 0xD3 JUMP JUMPDEST PUSH1 0x40 MLOAD PUSH2 0x96 SWAP2 SWAP1 PUSH2 0x44A JUMP JUMPDEST PUSH1 0x40 MLOAD DUP1 SWAP2 SUB SWAP1 RETURN JUMPDEST PUSH2 0xA7 PUSH2 0x17F JUMP JUMPDEST PUSH1 0x40 MLOAD PUSH2 0xB4 SWAP2 SWAP1 PUSH2 0x578 JUMP JUMPDEST PUSH1 0x40 MLOAD DUP1 SWAP2 SUB SWAP1 RETURN JUMPDEST PUSH2 0xC5 PUSH2 0x258 JUMP JUMPDEST STOP JUMPDEST PUSH1 0x0 DUP1 DUP1 SLOAD SWAP1 POP SWAP1 POP SWAP1 JUMP JUMPDEST PUSH1 0x0 DUP2 DUP2 SLOAD DUP2 LT PUSH2 0xE3 JUMPI PUSH1 0x0 DUP1 REVERT JUMPDEST SWAP1 PUSH1 0x0 MSTORE PUSH1 0x20 PUSH1 0x0 KECCAK256 ADD PUSH1 0x0 SWAP2 POP SWAP1 POP DUP1 SLOAD PUSH2 0xFE SWAP1 PUSH2 0x5C9 JUMP JUMPDEST DUP1 PUSH1 0x1F ADD PUSH1 0x20 DUP1 SWAP2 DIV MUL PUSH1 0x20 ADD PUSH1 0x40 MLOAD SWAP1 DUP2 ADD PUSH1 0x40 MSTORE DUP1 SWAP3 SWAP2 SWAP1 DUP2 DUP2 MSTORE PUSH1 0x20 ADD DUP3 DUP1 SLOAD PUSH2 0x12A SWAP1 PUSH2 0x5C9 JUMP JUMPDEST DUP1 ISZERO PUSH2 0x177 JUMPI DUP1 PUSH1 0x1F LT PUSH2 0x14C JUMPI PUSH2 0x100 DUP1 DUP4 SLOAD DIV MUL DUP4 MSTORE SWAP2 PUSH1 0x20 ADD SWAP2 PUSH2 0x177 JUMP JUMPDEST DUP3 ADD SWAP2 SWAP1 PUSH1 0x0 MSTORE PUSH1 0x20 PUSH1 0x0 KECCAK256 SWAP1 JUMPDEST DUP2 SLOAD DUP2 MSTORE SWAP1 PUSH1 0x1 ADD SWAP1 PUSH1 0x20 ADD DUP1 DUP4 GT PUSH2 0x15A JUMPI DUP3 SWAP1 SUB PUSH1 0x1F AND DUP3 ADD SWAP2 JUMPDEST POP POP POP POP POP DUP2 JUMP JUMPDEST PUSH1 0x60 PUSH1 0x0 DUP1 SLOAD DUP1 PUSH1 0x20 MUL PUSH1 0x20 ADD PUSH1 0x40 MLOAD SWAP1 DUP2 ADD PUSH1 0x40 MSTORE DUP1 SWAP3 SWAP2 SWAP1 DUP2 DUP2 MSTORE PUSH1 0x20 ADD PUSH1 0x0 SWAP1 JUMPDEST DUP3 DUP3 LT ISZERO PUSH2 0x24F JUMPI DUP4 DUP3 SWAP1 PUSH1 0x0 MSTORE PUSH1 0x20 PUSH1 0x0 KECCAK256 ADD DUP1 SLOAD PUSH2 0x1C2 SWAP1 PUSH2 0x5C9 JUMP JUMPDEST DUP1 PUSH1 0x1F ADD PUSH1 0x20 DUP1 SWAP2 DIV MUL PUSH1 0x20 ADD PUSH1 0x40 MLOAD SWAP1 DUP2 ADD PUSH1 0x40 MSTORE DUP1 SWAP3 SWAP2 SWAP1 DUP2 DUP2 MSTORE PUSH1 0x20 ADD DUP3 DUP1 SLOAD PUSH2 0x1EE SWAP1 PUSH2 0x5C9 JUMP JUMPDEST DUP1 ISZERO PUSH2 0x23B JUMPI DUP1 PUSH1 0x1F LT PUSH2 0x210 JUMPI PUSH2 0x100 DUP1 DUP4 SLOAD DIV MUL DUP4 MSTORE SWAP2 PUSH1 0x20 ADD SWAP2 PUSH2 0x23B JUMP JUMPDEST DUP3 ADD SWAP2 SWAP1 PUSH1 0x0 MSTORE PUSH1 0x20 PUSH1 0x0 KECCAK256 SWAP1 JUMPDEST DUP2 SLOAD DUP2 MSTORE SWAP1 PUSH1 0x1 ADD SWAP1 PUSH1 0x20 ADD DUP1 DUP4 GT PUSH2 0x21E JUMPI DUP3 SWAP1 SUB PUSH1 0x1F AND DUP3 ADD SWAP2 JUMPDEST POP POP POP POP POP DUP2 MSTORE PUSH1 0x20 ADD SWAP1 PUSH1 0x1 ADD SWAP1 PUSH2 0x1A3 JUMP JUMPDEST POP POP POP POP SWAP1 POP SWAP1 JUMP JUMPDEST PUSH1 0x0 DUP1 PUSH1 0x1 DUP2 SLOAD ADD DUP1 DUP3 SSTORE DUP1 SWAP2 POP POP PUSH1 0x1 SWAP1 SUB SWAP1 PUSH1 0x0 MSTORE PUSH1 0x20 PUSH1 0x0 KECCAK256 ADD PUSH1 0x0 PUSH1 0x40 MLOAD DUP1 PUSH1 0x40 ADD PUSH1 0x40 MSTORE DUP1 PUSH1 0x2 DUP2 MSTORE PUSH1 0x20 ADD PUSH32 0x4869000000000000000000000000000000000000000000000000000000000000 DUP2 MSTORE POP SWAP1 SWAP2 SWAP1 SWAP2 POP SWAP1 DUP2 PUSH2 0x2BE SWAP2 SWAP1 PUSH2 0x7D5 JUMP JUMPDEST POP PUSH1 0x0 DUP1 PUSH1 0x1 DUP2 SLOAD ADD DUP1 DUP3 SSTORE DUP1 SWAP2 POP POP PUSH1 0x1 SWAP1 SUB SWAP1 PUSH1 0x0 MSTORE PUSH1 0x20 PUSH1 0x0 KECCAK256 ADD PUSH1 0x0 PUSH1 0x40 MLOAD DUP1 PUSH1 0x40 ADD PUSH1 0x40 MSTORE DUP1 PUSH1 0x3 DUP2 MSTORE PUSH1 0x20 ADD PUSH32 0x4279650000000000000000000000000000000000000000000000000000000000 DUP2 MSTORE POP SWAP1 SWAP2 SWAP1 SWAP2 POP SWAP1 DUP2 PUSH2 0x325 SWAP2 SWAP1 PUSH2 0x7D5 JUMP JUMPDEST POP JUMP JUMPDEST PUSH1 0x0 DUP2 SWAP1 POP SWAP2 SWAP1 POP JUMP JUMPDEST PUSH2 0x33B DUP2 PUSH2 0x328 JUMP JUMPDEST DUP3 MSTORE POP POP JUMP JUMPDEST PUSH1 0x0 PUSH1 0x20 DUP3 ADD SWAP1 POP PUSH2 0x356 PUSH1 0x0 DUP4 ADD DUP5 PUSH2 0x332 JUMP JUMPDEST SWAP3 SWAP2 POP POP JUMP JUMPDEST PUSH1 0x0 DUP1 REVERT JUMPDEST PUSH2 0x36A DUP2 PUSH2 0x328 JUMP JUMPDEST DUP2 EQ PUSH2 0x375 JUMPI PUSH1 0x0 DUP1 REVERT JUMPDEST POP JUMP JUMPDEST PUSH1 0x0 DUP2 CALLDATALOAD SWAP1 POP PUSH2 0x387 DUP2 PUSH2 0x361 JUMP JUMPDEST SWAP3 SWAP2 POP POP JUMP JUMPDEST PUSH1 0x0 PUSH1 0x20 DUP3 DUP5 SUB SLT ISZERO PUSH2 0x3A3 JUMPI PUSH2 0x3A2 PUSH2 0x35C JUMP JUMPDEST JUMPDEST PUSH1 0x0 PUSH2 0x3B1 DUP5 DUP3 DUP6 ADD PUSH2 0x378 JUMP JUMPDEST SWAP2 POP POP SWAP3 SWAP2 POP POP JUMP JUMPDEST PUSH1 0x0 DUP2 MLOAD SWAP1 POP SWAP2 SWAP1 POP JUMP JUMPDEST PUSH1 0x0 DUP3 DUP3 MSTORE PUSH1 0x20 DUP3 ADD SWAP1 POP SWAP3 SWAP2 POP POP JUMP JUMPDEST PUSH1 0x0 JUMPDEST DUP4 DUP2 LT ISZERO PUSH2 0x3F4 JUMPI DUP1 DUP3 ADD MLOAD DUP2 DUP5 ADD MSTORE PUSH1 0x20 DUP2 ADD SWAP1 POP PUSH2 0x3D9 JUMP JUMPDEST PUSH1 0x0 DUP5 DUP5 ADD MSTORE POP POP POP POP JUMP JUMPDEST PUSH1 0x0 PUSH1 0x1F NOT PUSH1 0x1F DUP4 ADD AND SWAP1 POP SWAP2 SWAP1 POP JUMP JUMPDEST PUSH1 0x0 PUSH2 0x41C DUP3 PUSH2 0x3BA JUMP JUMPDEST PUSH2 0x426 DUP2 DUP6 PUSH2 0x3C5 JUMP JUMPDEST SWAP4 POP PUSH2 0x436 DUP2 DUP6 PUSH1 0x20 DUP7 ADD PUSH2 0x3D6 JUMP JUMPDEST PUSH2 0x43F DUP2 PUSH2 0x400 JUMP JUMPDEST DUP5 ADD SWAP2 POP POP SWAP3 SWAP2 POP POP JUMP JUMPDEST PUSH1 0x0 PUSH1 0x20 DUP3 ADD SWAP1 POP DUP2 DUP2 SUB PUSH1 0x0 DUP4 ADD MSTORE PUSH2 0x464 DUP2 DUP5 PUSH2 0x411 JUMP JUMPDEST SWAP1 POP SWAP3 SWAP2 POP POP JUMP JUMPDEST PUSH1 0x0 DUP2 MLOAD SWAP1 POP SWAP2 SWAP1 POP JUMP JUMPDEST PUSH1 0x0 DUP3 DUP3 MSTORE PUSH1 0x20 DUP3 ADD SWAP1 POP SWAP3 SWAP2 POP POP JUMP JUMPDEST PUSH1 0x0 DUP2 SWAP1 POP PUSH1 0x20 DUP3 ADD SWAP1 POP SWAP2 SWAP1 POP JUMP JUMPDEST PUSH1 0x0 DUP3 DUP3 MSTORE PUSH1 0x20 DUP3 ADD SWAP1 POP SWAP3 SWAP2 POP POP JUMP JUMPDEST PUSH1 0x0 PUSH2 0x4B4 DUP3 PUSH2 0x3BA JUMP JUMPDEST PUSH2 0x4BE DUP2 DUP6 PUSH2 0x498 JUMP JUMPDEST SWAP4 POP PUSH2 0x4CE DUP2 DUP6 PUSH1 0x20 DUP7 ADD PUSH2 0x3D6 JUMP JUMPDEST PUSH2 0x4D7 DUP2 PUSH2 0x400 JUMP JUMPDEST DUP5 ADD SWAP2 POP POP SWAP3 SWAP2 POP POP JUMP JUMPDEST PUSH1 0x0 PUSH2 0x4EE DUP4 DUP4 PUSH2 0x4A9 JUMP JUMPDEST SWAP1 POP SWAP3 SWAP2 POP POP JUMP JUMPDEST PUSH1 0x0 PUSH1 0x20 DUP3 ADD SWAP1 POP SWAP2 SWAP1 POP JUMP JUMPDEST PUSH1 0x0 PUSH2 0x50E DUP3 PUSH2 0x46C JUMP JUMPDEST PUSH2 0x518 DUP2 DUP6 PUSH2 0x477 JUMP JUMPDEST SWAP4 POP DUP4 PUSH1 0x20 DUP3 MUL DUP6 ADD PUSH2 0x52A DUP6 PUSH2 0x488 JUMP JUMPDEST DUP1 PUSH1 0x0 JUMPDEST DUP6 DUP2 LT ISZERO PUSH2 0x566 JUMPI DUP5 DUP5 SUB DUP10 MSTORE DUP2 MLOAD PUSH2 0x547 DUP6 DUP3 PUSH2 0x4E2 JUMP JUMPDEST SWAP5 POP PUSH2 0x552 DUP4 PUSH2 0x4F6 JUMP JUMPDEST SWAP3 POP PUSH1 0x20 DUP11 ADD SWAP10 POP POP PUSH1 0x1 DUP2 ADD SWAP1 POP PUSH2 0x52E JUMP JUMPDEST POP DUP3 SWAP8 POP DUP8 SWAP6 POP POP POP POP POP POP SWAP3 SWAP2 POP POP JUMP JUMPDEST PUSH1 0x0 PUSH1 0x20 DUP3 ADD SWAP1 POP DUP2 DUP2 SUB PUSH1 0x0 DUP4 ADD MSTORE PUSH2 0x592 DUP2 DUP5 PUSH2 0x503 JUMP JUMPDEST SWAP1 POP SWAP3 SWAP2 POP POP JUMP JUMPDEST PUSH32 0x4E487B7100000000000000000000000000000000000000000000000000000000 PUSH1 0x0 MSTORE PUSH1 0x22 PUSH1 0x4 MSTORE PUSH1 0x24 PUSH1 0x0 REVERT JUMPDEST PUSH1 0x0 PUSH1 0x2 DUP3 DIV SWAP1 POP PUSH1 0x1 DUP3 AND DUP1 PUSH2 0x5E1 JUMPI PUSH1 0x7F DUP3 AND SWAP2 POP JUMPDEST PUSH1 0x20 DUP3 LT DUP2 SUB PUSH2 0x5F4 JUMPI PUSH2 0x5F3 PUSH2 0x59A JUMP JUMPDEST JUMPDEST POP SWAP2 SWAP1 POP JUMP JUMPDEST PUSH32 0x4E487B7100000000000000000000000000000000000000000000000000000000 PUSH1 0x0 MSTORE PUSH1 0x41 PUSH1 0x4 MSTORE PUSH1 0x24 PUSH1 0x0 REVERT JUMPDEST PUSH1 0x0 DUP2 SWAP1 POP DUP2 PUSH1 0x0 MSTORE PUSH1 0x20 PUSH1 0x0 KECCAK256 SWAP1 POP SWAP2 SWAP1 POP JUMP JUMPDEST PUSH1 0x0 PUSH1 0x20 PUSH1 0x1F DUP4 ADD DIV SWAP1 POP SWAP2 SWAP1 POP JUMP JUMPDEST PUSH1 0x0 DUP3 DUP3 SHL SWAP1 POP SWAP3 SWAP2 POP POP JUMP JUMPDEST PUSH1 0x0 PUSH1 0x8 DUP4 MUL PUSH2 0x68B PUSH32 0xFFFFFFFFFFFFFFFFFFFFFFFFFFFFFFFFFFFFFFFFFFFFFFFFFFFFFFFFFFFFFFFF DUP3 PUSH2 0x64E JUMP JUMPDEST PUSH2 0x695 DUP7 DUP4 PUSH2 0x64E JUMP JUMPDEST SWAP6 POP DUP1 NOT DUP5 AND SWAP4 POP DUP1 DUP7 AND DUP5 OR SWAP3 POP POP POP SWAP4 SWAP3 POP POP POP JUMP JUMPDEST PUSH1 0x0 DUP2 SWAP1 POP SWAP2 SWAP1 POP JUMP JUMPDEST PUSH1 0x0 PUSH2 0x6D2 PUSH2 0x6CD PUSH2 0x6C8 DUP5 PUSH2 0x328 JUMP JUMPDEST PUSH2 0x6AD JUMP JUMPDEST PUSH2 0x328 JUMP JUMPDEST SWAP1 POP SWAP2 SWAP1 POP JUMP JUMPDEST PUSH1 0x0 DUP2 SWAP1 POP SWAP2 SWAP1 POP JUMP JUMPDEST PUSH2 0x6EC DUP4 PUSH2 0x6B7 JUMP JUMPDEST PUSH2 0x700 PUSH2 0x6F8 DUP3 PUSH2 0x6D9 JUMP JUMPDEST DUP5 DUP5 SLOAD PUSH2 0x65B JUMP JUMPDEST DUP3 SSTORE POP POP POP POP JUMP JUMPDEST PUSH1 0x0 SWAP1 JUMP JUMPDEST PUSH2 0x715 PUSH2 0x708 JUMP JUMPDEST PUSH2 0x720 DUP2 DUP5 DUP5 PUSH2 0x6E3 JUMP JUMPDEST POP POP POP JUMP JUMPDEST JUMPDEST DUP2 DUP2 LT ISZERO PUSH2 0x744 JUMPI PUSH2 0x739 PUSH1 0x0 DUP3 PUSH2 0x70D JUMP JUMPDEST PUSH1 0x1 DUP2 ADD SWAP1 POP PUSH2 0x726 JUMP JUMPDEST POP POP JUMP JUMPDEST PUSH1 0x1F DUP3 GT ISZERO PUSH2 0x789 JUMPI PUSH2 0x75A DUP2 PUSH2 0x629 JUMP JUMPDEST PUSH2 0x763 DUP5 PUSH2 0x63E JUMP JUMPDEST DUP2 ADD PUSH1 0x20 DUP6 LT ISZERO PUSH2 0x772 JUMPI DUP2 SWAP1 POP JUMPDEST PUSH2 0x786 PUSH2 0x77E DUP6 PUSH2 0x63E JUMP JUMPDEST DUP4 ADD DUP3 PUSH2 0x725 JUMP JUMPDEST POP POP JUMPDEST POP POP POP JUMP JUMPDEST PUSH1 0x0 DUP3 DUP3 SHR SWAP1 POP SWAP3 SWAP2 POP POP JUMP JUMPDEST PUSH1 0x0 PUSH2 0x7AC PUSH1 0x0 NOT DUP5 PUSH1 0x8 MUL PUSH2 0x78E JUMP JUMPDEST NOT DUP1 DUP4 AND SWAP2 POP POP SWAP3 SWAP2 POP POP JUMP JUMPDEST PUSH1 0x0 PUSH2 0x7C5 DUP4 DUP4 PUSH2 0x79B JUMP JUMPDEST SWAP2 POP DUP3 PUSH1 0x2 MUL DUP3 OR SWAP1 POP SWAP3 SWAP2 POP POP JUMP JUMPDEST PUSH2 0x7DE DUP3 PUSH2 0x3BA JUMP JUMPDEST PUSH8 0xFFFFFFFFFFFFFFFF DUP2 GT ISZERO PUSH2 0x7F7 JUMPI PUSH2 0x7F6 PUSH2 0x5FA JUMP JUMPDEST JUMPDEST PUSH2 0x801 DUP3 SLOAD PUSH2 0x5C9 JUMP JUMPDEST PUSH2 0x80C DUP3 DUP3 DUP6 PUSH2 0x748 JUMP JUMPDEST PUSH1 0x0 PUSH1 0x20 SWAP1 POP PUSH1 0x1F DUP4 GT PUSH1 0x1 DUP2 EQ PUSH2 0x83F JUMPI PUSH1 0x0 DUP5 ISZERO PUSH2 0x82D JUMPI DUP3 DUP8 ADD MLOAD SWAP1 POP JUMPDEST PUSH2 0x837 DUP6 DUP3 PUSH2 0x7B9 JUMP JUMPDEST DUP7 SSTORE POP PUSH2 0x89F JUMP JUMPDEST PUSH1 0x1F NOT DUP5 AND PUSH2 0x84D DUP7 PUSH2 0x629 JUMP JUMPDEST PUSH1 0x0 JUMPDEST DUP3 DUP2 LT ISZERO PUSH2 0x875 JUMPI DUP5 DUP10 ADD MLOAD DUP3 SSTORE PUSH1 0x1 DUP3 ADD SWAP2 POP PUSH1 0x20 DUP6 ADD SWAP5 POP PUSH1 0x20 DUP2 ADD SWAP1 POP PUSH2 0x850 JUMP JUMPDEST DUP7 DUP4 LT ISZERO PUSH2 0x892 JUMPI DUP5 DUP10 ADD MLOAD PUSH2 0x88E PUSH1 0x1F DUP10 AND DUP3 PUSH2 0x79B JUMP JUMPDEST DUP4 SSTORE POP JUMPDEST PUSH1 0x1 PUSH1 0x2 DUP9 MUL ADD DUP9 SSTORE POP POP POP JUMPDEST POP POP POP POP POP POP JUMP INVALID LOG2 PUSH5 0x6970667358 0x22 SLT KECCAK256 PUSH12 0x1F879B6CD530677AF60834BA PUSH23 0x2646AFF2E68A1F41399F37A88D6810EE2DD064736F6C63 NUMBER STOP ADDMOD SGT STOP CALLER "
				},
				"gasEstimates": {
					"creation": {
						"codeDepositCost": "453800",
						"executionCost": "486",
						"totalCost": "454286"
					},
					"external": {
						"getArray()": "infinite",
						"getArrayLength()": "2423",
						"myArray(uint256)": "infinite",
						"pushStringToArray()": "infinite"
					}
				},
				"methodIdentifiers": {
					"getArray()": "d504ea1d",
					"getArrayLength()": "0849cc99",
					"myArray(uint256)": "cc3e57d9",
					"pushStringToArray()": "d9bc383f"
				}
			},
			"storageLayout": {
				"storage": [
					{
						"astId": 4,
						"contract": "Contracts/Test.sol:Test",
						"label": "myArray",
						"offset": 0,
						"slot": "0",
						"type": "t_array(t_string_storage)dyn_storage"
					}
				],
				"types": {
					"t_array(t_string_storage)dyn_storage": {
						"base": "t_string_storage",
						"encoding": "dynamic_array",
						"label": "string[]",
						"numberOfBytes": "32"
					},
					"t_string_storage": {
						"encoding": "bytes",
						"label": "string",
						"numberOfBytes": "32"
					}
				}
			},
			"userdoc": {
				"kind": "user",
				"methods": {},
				"version": 1
			}
		}
	}
}